:020000041000EA
:1000000000B5324B212058609868022188439860DF
:10001000D860186158612E4B002199600221596106
:100020000121F02299502B49196001219960352056
:1000300000F044F80222904214D00621196600F024
:1000400034F8196E01211966002018661A6600F04E
:100050002CF8196E196E196E052000F02FF8012189
:100060000842F9D1002199601B49196000215960AB
:100070001A491B48016001219960EB211966A021F2
:10008000196600F012F800219960164914480160C1
:100090000121996001BC002800D000471248134993
:1000A000086003C880F30888084703B5996A0420EC
:1000B0000142FBD001200142F8D103BD02B5186610
:1000C0001866FFF7F2FF186E186E02BD00000240BE
:1000D000000000180000070000035F00212200005C
:1000E000F4000018222000A00001001008ED00E03C
:1000F00000000000000000000000000074B24E7A12
:1001000000200420F7010010C3010010C5010010F9
:10011000C1010010C1010010C1010010C101001097
:10012000C1010010C1010010C1010010457B001089
:10013000C1010010C10100109B7B0010E57B001085
:10014000CD010010CD010010CD010010CD01001037
:10015000CD010010CD010010CD010010CD01001027
:10016000CD010010CD010010CD010010CD01001017
:10017000CD010010CD010010CD010010CD01001007
:10018000CD010010CD010010CD010010CD010010F7
:10019000CD010010CD010010CD010010CD010010E7
:1001A000CD010010CD010010CD010010CD010010D7
:1001B000CD010010CD010010CD010010CD010010C7
:1001C00000BE00BE00BE00BE00BE00BE00F04BF888
:1001D000103800BEF2EB8871E0920010049300101A
:1001E0003402001090A31AE700202149086006C8D5
:1001F00081F3088810471F48006800282FD10DA4FC
:100200000ECC002902D000F012F8F9E71A491B4A77
:10021000002000E001C19142FCD1194988471949E9
:1002200088471949884700BEFDE701C901C29A42C3
:10023000FBD3704704930010C00000200C0700207F
:100240005099001000000420000004205099001074
:1002500000100420001004200000000070470B482C
:1002600003F038FE0047EFF30580C0B2704700008E
:1002700008ED00E0000000D010070020242A022032
:10028000D124001001100010A125001057560000C5
:1002900006005250ABB36053F0900010060052506D
:1002A000861C030200910010060052505422A29DA9
:1002B0000891001005005250DE65F4685099001056
:1002C000F8B5C04610B5064C2378002B07D1054B76
:1002D000002B02D0044800E000BF0123237010BDB2
:1002E000280800200000000008820010044B10B510
:1002F000002B03D00349044800E000BF10BDC046F6
:10030000000000002C08002008820010002805D002
:10031000D0231B06802292035A617047D0231B060C
:10032000802292039A61F8E770B586B006000C004F
:10033000002501F0BFFD02000B1E1CDB01001800B0
:1003400012196B41984202D804D1914202D901227C
:100350005242D317002B14DB029203930123009324
:1003600017226A4431000B4805F0AAF800280EDC79
:10037000002006B070BD084B084A3D21084802F035
:1003800013F9054B054A3D21054802F00DF90120FE
:10039000EFE7C046B402002008820010A0830010DE
:1003A00024820010002805D0D0231B06802292034F
:1003B0005A617047D0231B06802292039A61F8E7A6
:1003C00000280CD0D0231B06802212025A6100287C
:1003D0000BD0D0231B068022D2025A617047D02353
:1003E0001B06802212029A61F1E7D0231B068022AD
:1003F000D2029A61F2E710B5192000F063FFD02411
:10040000240680239B0463620F2000F05BFF80239F
:100410001B026362152000F055FF80239B0363627B
:10042000122000F04FFF8023DB02636210BD00004A
:1004300010B5E121114C4902200001F01BF8022106
:10044000012000F0F5FE0221002000F0F1FE216BFA
:10045000C0231B02194080235B01094A1A43116023
:10046000E26A602151406E220A4006490B431A603D
:10047000E16A10228A431A6010BDC0460040034062
:10048000304003402C40034030B589B0040007F0F1
:100490005BFDC21C23002D4901A803F0EFFC0121E4
:1004A0002B4B1868494205F044FC012842D009B0A2
:1004B00030BD6B46DA1C1470002100291AD1254B7F
:1004C0009B699B06FBD41478224B1C6001310132DE
:1004D000F3E76B46DA1C0D2313700021002919D1B4
:1004E0001C4B9B699B06FBD415781A4B1D60013190
:1004F0000132F3E703780D3B5A425341DBB201303E
:100500000478002C19D0002BD3D1134B00229B5E12
:10051000A342DED06B46DA1C147000210029E9D119
:100520000C4B9B699B06FBD414780A4B1C60013171
:100530000132F3E7002301A8E2E7054B1868002326
:100540000022002105F027FAB1E7C0467C820010A6
:10055000F428022000400340102A022000B583B096
:100560000EE06B46D91D07230B7001220A4B186859
:100570000023524205F00FFAFA20800006F0D2FA6A
:100580000648FFF781FF064B1868642105F0D1FB90
:100590000128E6D1F0E7C046FC290220888200103D
:1005A000F027022070B58EB005000C000B78512B9F
:1005B00036D14B78542B36D18B783A2B01D0002092
:1005C0002FE001A807F0B8FC1A4901A807F0EAFCDF
:1005D0001949002007F0E6FC07F0A8FC06001749BF
:1005E000002007F0DFFC07F0AFFCB0421DD1002374
:1005F00000E00133E25C3B2AFBD15A1CA25C2A706A
:1006000003330022272A09D8E05CA9184870013377
:10061000E15C2E290BD00132D2B2F3E7012000E0D9
:1006200000200EB070BD0020FBE70020F9E701209C
:10063000F7E7C0468C820010908200109482001070
:1006400030B59BB03AE06B46DA790DAB1A54013401
:10065000E4B2631E0DAAD35C2E2B1BD0312C3CD8E8
:1006600006F0F2F8A8423DD82E4B9B6910210A00F3
:100670001A401942EDD120006B46D91D002AE2D163
:10068000284B9B69DB06FBD4264B1B680B700132A1
:100690000131F3E739336B4403221A7001226724D6
:1006A0006C44214B186800235242210005F073F975
:1006B0002378032B1BD0012006F034FA194B9B69D9
:1006C000DB06F8D4322200210DA804F0BDFB06F0B1
:1006D000BBF80A3005000024C6E767236B440522F7
:1006E0001A70DBE767236B4404221A70D6E70DA962
:1006F00002A8FFF757FF002808D001220B4B18680B
:100700000023524202A905F046F9D4E76721694463
:1007100006230B700122044B18680023524205F097
:100720003AF9C8E700400340FC290220CC2502200A
:1007300070B588B09A4B1B78002B10D16533994A5D
:10074000994901A803F09AFB0121984B1868494286
:1007500005F0EFFA012846D0002008B070BD6623EE
:10076000EDE76B46DA1C1170002100291BD1904B7C
:100770009B699B06FBD414788D4B1C6001310132C0
:10078000F3E76B46DA1C0D231370002408E0884B56
:100790009B699B06FBD41578854B1D6001340132A3
:1007A000002CF4D00FE003780D3B5A425341DBB2EA
:1007B00001300178002919D0002BD2D17D4B0022C5
:1007C0009B5E8B42DDD06B46DA1C11700021002944
:1007D000E9D1774B9B699B06FBD41478744B1C6062
:1007E00001310132F3E7002301A8E2E700226EE0C5
:1007F0006B46D91C0D230B700020002873D16C4B65
:100800009B699B06FBD40C78694B1C60013001315D
:10081000F3E7694B6900C85A00090F21884340B2C9
:1008200001356900CB5A1B0A1843C0B2614B002145
:100830005B5E83420FD06B46D91C087000200028F5
:100840001AD15B4B9B699B06FBD40C78584B1C6000
:1008500001300131F3E76B46D91C0D230B700024E6
:10086000002CE8D1524B9B699B06FBD40E78504B71
:100870001E6001340131F3E76D004F4B5D5D4D4B60
:1008800000215B5EAB420FD06B46D91C0D7000207F
:1008900000281AD1464B9B699B06FBD40C78444B2D
:1008A0001C6001300131F3E76B46D91C0D230B703E
:1008B00000200028E8D13E4B9B699B06FBD40C78B6
:1008C0003B4B1C6001300131F3E7023292B23B4BEB
:1008D0009A4218D8150053003749CE5C354B002199
:1008E0005B5EB34284D06B46D91C0E70002000289A
:1008F0008FD12F4B9B699B06FBD40C782C4B1C6033
:1009000001300131F3E700232D4826E06B46DA1C65
:100910001170002100291AD1254B9B699B06FBD43D
:100920001478234B1C6001310132F3E76B46DA1C6B
:100930000D2313700024002C19D11D4B9B699B06BD
:10094000FBD415781A4B1D6001340132F3E70378AC
:100950000D3B5A425341DBB201300178002916D0D9
:10096000002BD3D1134B00229B5E8B42DED06B4613
:10097000DA1C117000210029E9D10D4B9B699B06FF
:10098000FBD414780A4B1C6001310132F3E7074BAA
:1009900018680023002204F0FEFF0220DDE6C046B6
:1009A000212A0220EF6F000098820010F428022014
:1009B00000400340102A0220809001209B4A000042
:1009C0008482001010B50649064804F043FD032157
:1009D000112000F02DFC0321102000F029FC10BD97
:1009E00040420F00B402002010B5FA2189006020B7
:1009F000FFF79AFC002800D1FEE7FA218900612068
:100A0000FFF792FC002800D1FEE710BD10B50F21C2
:100A10001A2000F00DFC002200211A2000F020FC1A
:100A200000211A2000F036FC0F211B2000F000FCF2
:100A3000002200211B2000F013FC00211B2000F0ED
:100A400029FC0F211C2000F0F3FB002200211C20B8
:100A500000F006FC00211C2000F01CFC064B0022CC
:100A60001A6104F05DFD054B1A68054B5340054AB9
:100A70001340054A136010BD00C0044008C0044084
:100A80000D0000010F00000F08D0044000B585B034
:100A90000B0A6A461373517300230093023303AAAF
:100AA0000100024804F000FD05B000BDB4020020C2
:100AB00000B585B0224B00221A800120FFF772FC9E
:100AC000204B1B78002B1BD10020FFF779FC1E4B1D
:100AD0001A68C0239B025340F822520313401B4A5A
:100AE000136001F05BF81A4B029300230193194B3A
:100AF0000093C8225242D31701F01EF905B000BD81
:100B00000120FFF75DFC104B1A68C023DB02534045
:100B1000F822520313400D4A136000216020FFF7B2
:100B2000B5FF01F03BF80A4B0293002301930A4BF7
:100B30000093C8225242D31701F0FEF8DEE7C04608
:100B40001A2A0220212A022000C0044000D00440BA
:100B500010080020710E0010710B001010B500215C
:100B60006020FFF793FF00216120FFF78FFF10BD8A
:100B700010B52E4C23885B002D4A995A6120FFF74F
:100B800085FF2388002B08D0284A138801339BB2A5
:100B90001380C82B2AD8012010BD264B08221A60CA
:100BA000254B1B68DB05FBD501E0234BDB68224BA3
:100BB0009B68DB05F9D5204B1B68E022D20113406E
:100BC0001E4A13601E4B1B689B01A022D20594464F
:100BD00063441C4A1A601C4A5A601C4A9A601C4AA8
:100BE0001268DA601B4B08221A60CDE7114B08220D
:100BF0001A60114B1B68DB05FBD501E00E4BDB686F
:100C00000D4B9B68DB05F9D500216020FFF73EFF07
:100C100000216120FFF73AFF0020FFF777FB0E4B22
:100C20001868002104F0CAFF0020B5E71A2A022044
:100C3000F825022000F0044000C0044000D0044029
:100C4000CC2702200CC00440809001209C4A000068
:100C5000D027022000E00440D8270220F8B5204B1E
:100C60001B78002B38D11F4C1F49206804F015F861
:100C7000061C20600024002515E01C49301C04F0EF
:100C80000CF8291C04F00EF8194904F00BF8670061
:100C900004F032F8174BD8531749281C03F0F8FF1B
:100CA000051C0134A4B2C82CE7D9F8BD1349281C8F
:100CB00003F0F8FF0E4903F0F5FF660004F01CF89E
:100CC0000C4B98530C49281C03F0E2FF051C01341F
:100CD000A4B2C82CEAD9E8E700240025F9E7C04609
:100CE000212A0220C82502200000204100401C4784
:100CF00000F07F45F825022000004843C12CFE3655
:100D000010B58CB012E0632B09D1FFF7D1FE06E0DD
:100D10002B4B186800230022002104F03CFE294BD5
:100D200018680A2105F005F801283BD0264B186801
:100D30000A2201A904F086FF0128F0D101AB1B783B
:100D4000622B29D0DFD8302BE2D0612BE7D11F4BAB
:100D500000221A701E4C21006B46581D07F022F924
:100D600007F0E4F803F0A6FF1A4903F096FF1A4BC8
:100D700018602100002007F015F907F0D7F8174B8D
:100D800018702100002007F00DF907F0CFF8144B80
:100D90001870FFF763FFC2E70C4B01221A70FFF7D0
:100DA0005DFFBCE7FFF7C4FC6B46D91C087001224D
:100DB0000C4B18680023524204F0EDFDB6E7C04624
:100DC000F0270220D8270220CC250220212A022049
:100DD000A482001000002041C82502201F2A022002
:100DE0001E2A0220FC29022030B583B011236A4656
:100DF00013715071D02424062025A561022201A977
:100E0000024807F0F1F9656103B030BD00C003404E
:100E100070B5144C1449200004F0E6FB01210320B6
:100E200000F006FA0121022000F002FA052000F08D
:100E300049FAD021090620254D620C4AC0239B01A6
:100E4000134304221A60236803325A40CF2313400D
:100E500080204001204303604D61FF20FFF7C4FF65
:100E600070BDC04600C0034020A1070004C003407D
:100E700010B5304C23885B002F4A995A6020FFF749
:100E800005FE2388002B08D02A4A138801339BB221
:100E90001380C82B2ED8012010BD284B08221A60C1
:100EA000274B1B68DB05FBD501E0254BDB68244B9A
:100EB0009B68DB05F9D5224B1B68E022D201134069
:100EC000204A1360204B1878FFF78EFF1F4B1B68DA
:100ED0009B01A022D205944663441D4A1A601D4A14
:100EE0005A601D4A9A601D4A1268DA601C4B08223B
:100EF0001A60C9E7114B08221A60114B1B68DB0509
:100F0000FBD501E00E4BDB680D4B9B68DB05F9D58B
:100F100000216020FFF7BAFD0020FFF7F7F9FF205E
:100F2000FFF762FF0F4B1868002104F047FE002016
:100F3000B2E7C0461A2A0220F825022000F0044039
:100F400000C0044000D004401F2A0220CC27022009
:100F50000CC00440809001209C4A0000D027022051
:100F600000E00440D827022010B5012004F0C8FAA0
:100F7000174B1860174B0C2824D8174A1340C0028F
:100F800003430C218B4308200343144A1340144AA3
:100F90001340144803400120034313480340134AFD
:100FA00013608B4304200343136004318B431360AD
:100FB00010310B4313600E490B40902149030B4342
:100FC000136010BD0B4B0C4AAE210C4801F0ECFA3B
:100FD000CC27022010801F00FF87FFFF3FF8FFFF94
:100FE000FFFFBFFFFFFFDFFFFFFF7FFFD0270220D4
:100FF000FF7FE0FFA882001084830010C8820010E9
:1010000030B587B004F066F805AB04AA03A93148EF
:1010100000F0B6F8002803D12E492F4801F0E2FA7B
:10102000059A0499039800F06FF8FFF7E4F9FFF7C9
:10103000FFF9FFF7C7FCFFF7D7FCFFF78FFDFFF7BE
:10104000E5FCFFF7E5FEFFF78FFF032200210120FB
:1010500004F050FC214B186003220021012004F011
:1010600049FC1F4B1860012004F02AFD1D4B18603D
:10107000002201210A2004F03DFC1B4B18600022D5
:101080002921022004F036FC184B1860802200242D
:101090000194012300932300D2001549154805F05F
:1010A000FDF980252D0101940323009323002A00DC
:1010B0001149124805F0F2F901940223009323002C
:1010C0002A000F490F4805F0E9F905F07BFB2000E5
:1010D00007B030BDD0FB010050830010F027022084
:1010E000D8270220F4280220FC290220CC25022047
:1010F000288300105D0500103883001041060010A1
:1011000044830010010D0010F0B583B004000D0001
:10111000160000F05FF9002801D003B0F0BD154FB4
:1011200000973B0001220121053001F073FA00967F
:101130002B0022000121104801F094FB310069438B
:10114000200002F01FFF04000C4B0093002202213C
:10115000042001F05FFA0094230000220121052001
:1011600001F058FA00973B0002220021062001F00E
:1011700051FAD2E7006CDC0200800240001BB7008D
:10118000F0B5DE4657464E464546E0B583B080464C
:101190008B4600920193042001F042FBFA21890062
:1011A00002F0F0FE8246A0235B0099462CE0013C51
:1011B000002C20D025007D432900300002F0E2FE03
:1011C0004045F4D12900300002F0DCFE0029EED1C8
:1011D00073019B1B9B009E19F6005B461E60009BE3
:1011E0001F60019B1C60012003B0F0BCBB46B246EF
:1011F000A946A046F0BD013F002F01D03C00D7E733
:1012000001235B429C46E1444B460F2B09D95646CD
:101210004B465E43044BF218044B9A42F0D8072722
:10122000EAE70020E0E7C04680E5F9FF804F1200C2
:1012300010B58300084A944663441C68402262400B
:10124000C02414408022520113431C60C000034B91
:101250009C466044416010BD04C001400040014014
:1012600080000B4B9C46604400290DD00823002AC7
:101270000CD004221343026853400C2213408022F6
:1012800052011043036070470023F0E70022F1E7AA
:1012900004C00140002909D08000094B9C466044ED
:1012A00080239B0118434023036070478000044B58
:1012B0009C466044C0239B01184340230360F4E72D
:1012C00004C0014010B501238340D022120693626E
:1012D00093610521FFF7ACFF10BD0000EFF3108014
:1012E00072B6034B1B68002BFBD0BFF35F8F7047B8
:1012F0002C0100D0BFF35F8F024B00221A6080F3F5
:10130000108870472C0100D0F8B505000C001600BD
:10131000FFF7E4FFE308EF18EA5C07212140130020
:10132000CB40DB0707D401238B40DBB213433B7078
:10133000FFF7E0FFF8BD2100300001F053F9F0B5F0
:1013400083B00600019114001F00FFF7C7FF0500DE
:1013500000E00134BC420ED8E208B018B15C0722AC
:1013600022400B00D340DB07F3D401239340DBB2D0
:101370001943017001E0012464422800FFF7BAFF1D
:10138000002C02DB200003B0F0BD019B002BF9D044
:10139000089801F027F90000002307E0054A9A1891
:1013A0009200BFF35F8F0021116001331F2BF5D92D
:1013B0007047C04640000034054A1078431CDBB239
:1013C0001370172B02D9130010221A707047C046F1
:1013D00008020020034B1B6802201840431E98415E
:1013E000C0B2704700C0064070B504000D00062072
:1013F00001F016FAC000290002F0C4FD0300C6097E
:101400007F20184001304008002E05D00D4B9E4231
:1014100014D83500060000E001256562A6622C3470
:1014200080208001044300232360062001F0F8F9A6
:101430008000A901891902F0A5FD70BD0026024DAA
:10144000EBE7C046FEFF0000FFFF0000002909D0C7
:101450000A22064B9C466044434258414000044BDC
:10146000C252704780225200F3E7C0460080FCBFA2
:10147000102A022070B505000C00062001F0D0F9FA
:10148000002829D0164B9D4227D08022D203154B2D
:101490001A60154B1A60154B9B6811009943FAD1DD
:1014A00000212800FFF7D2FF21002800FFF79CFF52
:1014B0002C002C34E96A60224A406E2111408022BF
:1014C0005201224311600A4B2B6380239B0123436B
:1014D00010221A600323AB6470BD80221204D6E789
:1014E0000080034000E0004000F0004000C00040E9
:1014F0000103000010B50C00CB68834207D108003F
:101500000B699847002809D02068616810BD1E212A
:10151000054B064AFF31064801F046F80023E36018
:1015200000200021F2E7C046B8830010C4850010F7
:10153000CC83001070B505000C00080000F0AEFC74
:10154000200000F07FFD0849200000F0BFFCFFF7FD
:1015500033FF064B9C466044800068602C75A400F5
:10156000034BE55070BDC0464918001040000034E0
:10157000E027022010B5002922D003681B7B994286
:101580001ED8174B9C466144090183689C46614400
:101590000C684968002A19D003681B7B9A4215D849
:1015A00083680F488446624412019A181068536891
:1015B000020001208B4201D80ED00020C0B210BD25
:1015C000084B094A3921094800F0EEFF054B064A4D
:1015D0003921064800F0E8FFA242EFD8EDE7C04607
:1015E000FFFFFF0F1884001014860010CC8300103A
:1015F00010B500291ED0037B99421BD84B005B1805
:10160000033B0468A4466344002919D0002A1DD076
:10161000914221D0002A25D0047BA24222D804681E
:1016200050008018033820188170197800291FD1C4
:101630001A7010BD104B114A6921114800F0B4FF17
:10164000104B114A70310E4800F0AEFF0F4B0E4A9E
:1016500071210B4800F0A8FF0D4B0B4A722108487E
:1016600000F0A2FF044B054A6921054800F09CFFE9
:1016700041701A70DDE7C0464C840010808600106F
:1016800068840010C48400105C860010D0840010B0
:10169000DC84001070B506000D001400002914D081
:1016A000002A14D0806873689847002806D022006A
:1016B00029003000FFF79CFF280007E02A002100E6
:1016C0003000FFF795FF200000E0100070BD08001B
:1016D000FCE70000F0B583B00500009201930AAB6F
:1016E0001C780BAB1F78002C26D003685A7B9442E1
:1016F00007D10123002B19D1002C3BD1200003B0CE
:10170000F0BD002C0CD01A7B944209D81A686300F3
:101710001B19033BD3189B78002BEBD00123E9E77F
:101720003E4B3F4A69213F4800F03EFF3E4B3F4A57
:1017300062213F4800F038FF03689C7B002CDBD01F
:1017400012D01A7B94420FD862001219033A19681A
:101750008C46624451789973002900D1D9730023D3
:10176000937053701370C7E72C4B2D4A69212D4895
:1017700000F01AFF002C3AD02B681B7B9C4236D815
:101780002C4BE3181B01AA6894466344009A1A6024
:10179000019A5A60089A9A60099ADA602E68002CB9
:1017A0002BD030D0337B9C422DD863001B19033BD8
:1017B00032689446634400229A705A701A70717BA2
:1017C00022003000FFF766FF7073844200D095E777
:1017D000287D009A019B00F0C1FB061E01D0002F5E
:1017E00017D00C9B002B00D188E71E7086E7124BA8
:1017F000124A39210E4800F0D7FE114B114AA6219A
:10180000084800F0D1FE054B054A6921054800F063
:10181000CBFE2868210000F0DFFDE2E74C840010D9
:101820008086001068840010F48400108C860010FC
:10183000CC830010FFFFFF0F1884001014860010E7
:10184000C883001070860010F0B5DE4657464E463D
:101850004546E0B58BB00990002308938200B24B57
:10186000D658370032E0B14BB14A3D21B14800F0C3
:101870009BFEB14BB14A3921B14800F095FEB14B06
:10188000B14A8921AE4800F08FFEB04BAE4A8D219F
:10189000AB4800F089FEA84BAD4A3E21A84800F0B5
:1018A00083FE2A686B68099800F058FB00239A466B
:1018B00098467B68BFF35F8F00221A6086F310881A
:1018C0004346002B51D1002800D126E100F0F2FA66
:1018D00002000B1EC7DB00200021069007917868EC
:1018E000EFF3108672B601680029FCD0BFF35F8F5A
:1018F000396888464C7B002C32D0BAD0097B8C42A8
:10190000B7D8944965182D01B9688C466544286894
:101910006968801A99410029C3DC01D10028C0D12F
:101920000021404600F04EFDA042A8D12A686B6815
:1019300006920793AB689846EB689A464346002B9D
:10194000A3D0002CA7D03B681B7B9C42A3D8631E6E
:10195000FA68D35C08931B02184338610020A8E79B
:1019600000239A4698460020A3E7089B1B022343C6
:10197000994651461800C04705000E007A68EFF3FB
:10198000108B72B6136859424B41D9B2002BF9D172
:10199000BFF35F8F002E26DB002E52DD3B69002B4C
:1019A00053D04B4572D100F085FA02000B1E73DB59
:1019B0000100180052197341984202D804D1914293
:1019C00002D901225242D317002B6BDB0021049174
:1019D0000131039102945146019141460091380032
:1019E000FFF778FE49E03B69002BD5D04B451CD171
:1019F000069A079B10001900521BB341994202D866
:101A000004D1904202D901225242D317002B12DB9B
:101A10000021049101310391029451460191414604
:101A200000913800FFF756FE27E04B4B464A9C21B9
:101A3000434800F0B9FD3D4B3D4A3D213D4800F093
:101A4000B3FD002E01D1002DA8D13A68002C45D05D
:101A5000537B9C422CD1012100293FD1D37B002B09
:101A600042D1D473002C52D03B681B7B9C424ED891
:101A7000FA68013C135D0133135500233B617A681A
:101A8000BFF35F8F13608BF310881FE7324B2E4A32
:101A90009F212B4800F088FD244B254A3D212548F5
:101AA00000F082FD214B224A3D21224800F07CFDBE
:101AB000002C0DD0137B9C420AD863001B19033BFA
:101AC0001068844663449B78002BC5D00121C3E78E
:101AD000224B234A6921234800F066FD224B234A0A
:101AE000F721204800F060FD002B0AD0117B8B42CB
:101AF00007D85900CB18033B11688C4663445C70CF
:101B0000AFE7164B164A6921164800F04DFD0A4B07
:101B10000F4A3E210A4800F047FD0BB0F0BCBB461F
:101B2000B246A946A046F0BDE02702200882001078
:101B3000E085001024820010188400101486001024
:101B4000CC8300101C850010F8850010348500102F
:101B500038860010FFFFFF0F408500104C840010F6
:101B600080860010688400107C8500104C86001070
:101B700010B5084B5B68002B00D010BD054C23004E
:101B8000054A1021206800F03DFB03212000FFF7EB
:101B9000D1FCF2E70C0200207515001010B5064BC1
:101BA0005B68002B01D0044810BD044B044A592146
:101BB000044800F0F9FCC0460C020020A08500108B
:101BC00020860010CC830010F0B5DE4657464E4606
:101BD0004546E0B58BB0804616001F00149B9A4620
:101BE000159B994616AB1B789B461F2302AA944669
:101BF000634400221A7032E0002809D0424612687D
:101C0000127B904204D8421E4146C9688A5C48E073
:101C1000434B444A3E21444800F0C6FC0798002B41
:101C200075D05B46002B72D04946D04704000D00AA
:101C300003000B4300D171E0002946DB00F03AF9C4
:101C400006000F1E55DB36196F41B94202D804D188
:101C5000B04202D901267642F717002F4FDB4346E8
:101C60005A68EFF3108472B6136859424B41D9B2E7
:101C70000791002BF8D1BFF35F8F1F3302AA944660
:101C8000634404930023039302934B46019353460A
:101C9000009332003B004046FFF71CFD031EABD112
:101CA000020041464968BFF35F8F00250D6084F351
:101CB0001088002B29D01F2302A98C4663441B786F
:101CC000002BABD112021043A9E732003B00361BB8
:101CD000AF41BB4202D804D1B24202D901267642BA
:101CE000F717002FBBDA114B114A3D21114800F0C4
:101CF0005BFC0E4B0E4A3D210E4800F055FC0B4B91
:101D00000B4A3D210B4800F04FFC012040420BB034
:101D1000F0BCBB46B246A946A046F0BD0798F6E720
:101D20001884001038860010CC8300100882001040
:101D3000E085001024820010F0B585B00700100087
:101D400019000C9E13000B4301D101200021B76044
:101D50000A9B3361306071600B9B7361CA1713007B
:101D60005040040051400D00A41A9D4100F0A2F81B
:101D700002000B1E1BDB0100180012196B41984278
:101D800002D804D1914202D901225242D317002B2A
:101D900013DB0121029101960B4900913800FFF7F6
:101DA00013FFF060C317181AC00F05B0F0BD074B42
:101DB000074A3D21074800F0F7FB044B044A3D2148
:101DC000044800F0F1FBC046F51400100882001032
:101DD000E085001024820010026843680849496ABF
:101DE0008B4209D80648806A904207D28B4201D0C4
:101DF000012002E0002000E0002070470120FCE705
:101E0000004005400260436000487047D91D001043
:101E100070B5EFF305833F2018401038EFF3108CB6
:101E200072B6194B1B68002BFBD0BFF35F8F0123E9
:101E300019008140154A5163154A12781400C440B4
:101E4000234214D0114B5C6A8300124D5B599C42B3
:101E500006D38300104C1B598A430D490A7007E0D2
:101E60000A4A031D9B0099589950002300E0002363
:101E7000BFF35F8F044A002111608CF31088002BA0
:101E800000D0984770BDC046280100D000400540F2
:101E9000202A0220002A0220B825022010B50100C5
:101EA000024A0348FFF730FA10BDC046A48600106E
:101EB0001C2A0220044B5B6A034A906A1900536A89
:101EC0009942F9D17047C0460040054070B5040002
:101ED0000D00EFF3108672B61B4B1B68002BFBD076
:101EE000BFF35F8F002D1CD0200000F095FD174B35
:101EF00083420BD01900200000F096FD0121200044
:101F000000F082FD0123A340114A1360A400114B8D
:101F1000E550BFF35F8F0C4B00221A6086F31088E8
:101F200070BDA2000B4B0021D1500122A2400A49F2
:101F30000B7893430B700549200000F09FFD0021B2
:101F4000200000F061FDE4E7280100D0111E001020
:101F500038600540B8250220202A0220F0B5DE4670
:101F600000B584B00400150001921E000293FFF733
:101F7000A1FF03958E4202D84ED185424CD9EFF392
:101F8000108B72B6274B1B68002BFBD0BFF35F8F03
:101F9000254A17780125A540EBB23B431370234B2C
:101FA0005D63221D92000199D150A2002049029840
:101FB00050501B6A2B4212D11C4B1B6C2B4208D079
:101FC0000020BFF35F8F174B00221A608BF310883D
:101FD00023E0184B184AB321184800F0E5FAFFF740
:101FE00069FF8E4214D802D1039B834210D80E4B56
:101FF0001B78BB420ED00D4B1D625D631F20044059
:102000000123A3400E4A1360074B1F701E38D8E708
:102010000020D6E70120D4E7012004B080BCBB46F5
:10202000F0BDC046280100D0202A02200040054013
:10203000002A0220C886001040870010EC8600109D
:1020400080E200E0EFF3108C72B60B4B1B68002BA4
:10205000FBD0BFF35F8F01238340084A1362084916
:102060000A789A430A70BFF35F8F034B00221A600D
:102070008CF310887047C046280100D0004005400E
:10208000202A0220024B9C4661448900016070476F
:102090004000003410B50400FFF78EF90100200065
:1020A000FFF7F0FFFF232371BFF35F8F10BD000028
:1020B00010B500291ED0037B99421BD84B005B183A
:1020C000033B0468A4466344002919D0002A1DD0AC
:1020D000914221D0002A25D0047BA24222D8046854
:1020E00050008018033820188170197800291FD1FA
:1020F0001A7010BD104B114A6921114800F054FAB2
:10210000104B114A70310E4800F04EFA0F4B0E4A38
:1021100071210B4800F048FA0D4B0B4A7221084818
:1021200000F042FA044B054A6921054800F03CFAE8
:1021300041701A70DDE7C0464C840010F88800102A
:1021400068840010C4840010E4880010D08400105B
:10215000DC84001070B506000D001400002914D0B6
:10216000002A14D0806873689847002806D022009F
:1021700029003000FFF79CFF280007E02A0021001B
:102180003000FFF795FF200000E0100070BD080050
:10219000FCE7000010B50023437301338373037B16
:1021A000C3730123027B9A4214D9002B0CD0027B0B
:1021B000934209D85A00D218033A01688C46624407
:1021C0000133DBB25370EDE70B4B0C4A69210C482D
:1021D00000F0EAF9002A09D0924207D801685300BA
:1021E0009A18033A8A180023537010BD024B034A11
:1021F0006921034800F0D8F94C840010F8880010D9
:102200006884001010B5017342608360FFF7C2FF5D
:1022100010BD000070B50400081E00D170BD00297B
:1022200034D0237B994231D84B005B18033B2268A2
:10223000944663445A78002AF0D02DD0237B9A42EA
:102240002AD853009B18033B21688C4663445D7871
:1022500000215970002825D0237B984222D84300C2
:102260001B18033B21688C46634400215970010010
:102270002000FFF76FFF060029002000FFF7CAFFCC
:10228000020031002000FFF765FFC7E7084B094A4D
:102290006921094800F088F9054B064A692106487A
:1022A00000F082F9024B034A6921034800F07CF9EF
:1022B0004C840010F88800106884001070B5050088
:1022C0000C001600002928D02DD0037B99422AD873
:1022D0004B005B18033B0268944663445A78002A1B
:1022E00027D19A78002A2AD11978FFF793FF0300A3
:1022F000002E03D0EA7B002A27D1EC73002B37D1C4
:10230000002C49D02B7B9C4246D82B6861000C19CD
:10231000033C1C190023637070BD224B224A3821F4
:10232000224800F041F9224B224A6921224800F05C
:102330003BF9224B1C4A3A211C4800F035F9204B4E
:10234000194A3B21194800F02FF9002A0AD0297BAD
:102350008A4207D851008A18033A29688C46624499
:102360005470CAE7124B134A6921134800F01CF954
:10237000002B0BD02A7B934208D843001B18033B49
:102380002A689446634400229A70B9E7084B094AC8
:102390006921094800F008F9054B064A69210648F9
:1023A00000F002F9F0870010D0880010F8870010C4
:1023B0004C840010F88800106884001044880010D5
:1023C0006C88001070B504000A00457B2900FFF7F7
:1023D00075FF6073280070BD70B50400002967D0D8
:1023E000437B8B420ED0002911D0037B99420ED83B
:1023F0004B005B18033B0268D0188378002B0CD18C
:10240000002056E00121FFF7DDFF012051E0294BBC
:10241000294A6921294800F0C7F8002B20D0227BE7
:1024200093421DD85A00D318033B2268D21825685E
:10243000EB5C8B421AD0002B1BD0227B934218D826
:102440005A00D318033B2268D21853788B4216D017
:10245000002BF0D11A4B1B4A67211B4800F0A4F84F
:10246000144B154A6921154800F09EF84378137003
:1024700007E0104B104A6921104800F095F84378A6
:10248000537000238370437001222000FFF716FF72
:102490000200617B814205D02000FFF75BFE607384
:1024A000012006E0094B074A6D21074800F07CF83F
:1024B000002070BD4C840010F88800106884001063
:1024C00090880010B8880010F887001098880010D5
:1024D00070B5234B234A1A60234B244A1A60244BBD
:1024E0009A68224B9343FAD1224C01E008CC9847DA
:1024F000214B9C42FAD300F001F91B4B1F4A1A6092
:102500001B4B9B68DB43DB01FAD11D4B40229A67D2
:102510005A671A67DA661B4C03E02000FFF7BAFD22
:102520000834194B9C42F8D3184CA168184DC022AE
:10253000280002F08FFCA560FDF795FE002800D072
:1025400000BEFEF729FF00F0FBFBFFF711FB114C6B
:1025500001E008CC9847104B9C42FAD370BDC046AE
:1025600000E00040BFCDFFFF00F00040FE7F3C00D8
:1025700000C00040F806002008070020FFFFFF0110
:1025800000F00140F0060020F806002000ED00E019
:1025900000000020080700200C07002000BEFDE717
:1025A00010B5FFF7FBFF000010B582B00C0019005A
:1025B000002A0CD0084B002A0BD001920093230074
:1025C0000200064802F07AFD0120FFF7E7FF044B06
:1025D000F1E7034AF1E7C0460489001014890010AE
:1025E000108900100FB400B583B0084802F036FD22
:1025F000049B002B07D005A90191180002F03CFDB7
:10260000034802F02BFD0120FFF7C8FF44890010AA
:1026100054890010F8B5D646474680B506000D002F
:102620001700089A934243D3190E1802089A002300
:1026300001F0EEFC80467400A419A4002A4B9C46CD
:1026400064446368834200D26060331FDBB29A4601
:10265000012B33D9C0239B012343802212011A602E
:10266000B300224A9958002905D0506901F08AFC2C
:1026700001300138FDD17F0122685740E022174028
:1026800080235B0123431F605246012A21D9802306
:102690009B012343802212011A6043466360B60007
:1026A000124B089AF2500120C0BCBA46B046F8BDA1
:1026B0000F4B104A2E211048FFF776FF012DC9D18C
:1026C000C0239B01234303221A60A368DB07FCD5C8
:1026D000D1E72168694003220A401A60A2680123F9
:1026E000AB401342FAD0D2E700800040D025022050
:1026F00058890010C48900106C89001030B583B06F
:102700000C2000F093F8FEF765FE00280DD00023A2
:1027100004E09900334A344888500133092BF8D932
:10272000304B324A5A6203B030BD314B00229A67B7
:1027300000F084F82F4B01221A602D4B5B6C012BAB
:10274000FBD12D4B03221A60294B9B6B012BFBD134
:10275000C0239B01294A1360294A1360294B9A68B8
:10276000C0239B019343F9D1022400940633264AE7
:102770000121264800F076F800940523244A01211F
:10278000244800F06FF8244B00930022022104201B
:10279000FFF740FF214D00952B000022012105206D
:1027A000FFF738FF104C009423000022002107207F
:1027B000FFF730FF00942300002200210820FFF7DC
:1027C00029FF0A4B00932300002200210920FFF774
:1027D00021FF00952B00002200210620FFF71AFFA1
:1027E000A1E7C046D0250220006CDC021BB7000028
:1027F000008000403CB0004030B0004000E00040AD
:1028000000F0004000C00040002F685900800240E6
:1028100000389C1C00C00240001BB70040597307E1
:102820008000014BC0587047D025022080239B00B8
:102830000343014AD362704700800540064BAA2239
:1028400012011A602F22DA60044B054A1A60024B0B
:102850005B68002BFBDA70470040024000600240DA
:1028600000B0FA00F0B5CE4600B504008946160067
:102870001D0001235B424360002383600C2001F0B4
:1028800081FB07004B46236043011B1A9901C91ABB
:10289000C90009188901300001F074FB0200103AE8
:1028A00098235B009A4220D86B1E062B23D8069BE8
:1028B000013B062B1FD8069B9D4222D33209BA4208
:1028C00025D3A060221DC0239B01134321221A603F
:1028D0002268002AFCDA2D04069A16033543E560C7
:1028E00008221A6080BCB946F0BD0C4B0C4A1A2174
:1028F0000C48FFF759FE0C4B094A1D210948FFF708
:1029000053FE0A4B064A23210648FFF74DFE084BAB
:10291000034A27210348FFF747FEC046D489001029
:10292000C08A0010F0890010408A00108C8A0010C4
:10293000A48A0010074B9B68103080001950BFF329
:102940005F8FBFF35F8F044B0021196082F3108803
:102950007047C04600ED00E0240100D010B5091A10
:1029600004394808090B05D14005400D044B1843B4
:1029700080B210BD034B044A8C210448FFF714FEBB
:1029800000E0FFFFCC8A0010E88C0010DC8A001009
:1029900010B5091A04394C08090B08D14905490D2D
:1029A000064A11430180064B2343438010BD054B6B
:1029B000054A94210548FFF7F7FDC04600F0FFFFE8
:1029C00000F8FFFFCC8A0010BC8C0010DC8A0010DD
:1029D00001238340034A10681840431E9841C0B247
:1029E0007047C04600E100E0002904D0034B1860A6
:1029F000034B18607047034B1860FBE780E200E070
:102A000000E100E080E100E010B501238340180000
:102A1000FFF7EAFF10BD0000024B9B6810308000FA
:102A2000C058704700ED00E070B504000D00EFF3F2
:102A3000108672B60C4B1B68002BFBD0BFF35F8F68
:102A40002000FFF7E9FF094B984201D0A84205D1C9
:102A5000320029002000FFF76DFF70BD044B054ACE
:102A600070210548FFF7A0FD240100D0CD01001022
:102A70002C8B0010048D0010DC8A0010F0B5CE46BF
:102A8000474680B583B006000D00EFF3108872B69C
:102A9000574B1B68002BFBD0BFF35F8F554B9A68D9
:102AA00034001034A300D758534B9F4207D0AF4295
:102AB00000D19BE00197514BFB1A2F2B09D94246BD
:102AC00039003000FFF736FF03B0C0BCB946B0464E
:102AD000F0BD3000FFF77CFF814600213000FFF79A
:102AE00093FFBFF35F8FFDF7BEFB002801D0844248
:102AF00019D10123019C9C43230040495B1A5B418F
:102B000048495943090D49B20022A368AB4212D08B
:102B10000622A256002A0DDB53009B189B002200C0
:102B2000364CE418F1E72021354B364AFF31364860
:102B3000FFF73AFD2200AB4251D106256557002D23
:102B400039DB6B005B199A002C4B9B189A68A260CA
:102B5000DA79E27106229A56A2719B795BB2002B58
:102B600010DABD200002A0806B005B199B00234A95
:102B7000D318264A11789971157049463000FFF72D
:102B800043FF9CE7201D6B005B199B001B4A9B18B1
:102B90001A1D9B88D90A1C2907D15B055B150233D6
:102BA00059005118FFF7DAFEDDE7194B194A9A214F
:102BB0001548FFF7F9FC00280CD1002A08D0FF23A4
:102BC0009371154B9380114B1A78A2711970D4E749
:102BD000094FF8E7201D1149FFF7DAFECDE7AA21DA
:102BE0000F4B084A49000848FFF7DEFC024F66E732
:102BF000240100D000ED00E0CD01001034020020DF
:102C0000408C0010D48C0010DC8A00101D2A022099
:102C1000288C0010F48C001000BDFFFF6E02002015
:102C2000648C0010AAAA000010B5032304009C4382
:102C3000064A9446644422681840C000FC3383402E
:102C40009A43130081400B43236010BD00E400E071
:102C500070B50400012606432D4BF31A2F2B28D8FC
:102C6000FDF701FB00282BD0EFF3108C72B6294B37
:102C70001B68002BFBD0BFF35F8F2300244D5B1B31
:102C80005B412E4D5D432D0D6DB2234B9B68800043
:102C90001B58B3421BD00022032A32D853009B1882
:102CA0009B001B49CB189B795BB2AB421FD0013212
:102CB000F2E77221194B1A4AFF311A48FFF774FCE8
:102CC000BA21194B164A49001648FFF76DFC124B02
:102CD0009B68164A1A50164B1A78A2711D70BFF3E2
:102CE0005F8F0C4B00221A608CF3108870BD0800B7
:102CF0005300991889004118FF268E710D4A8A8069
:102D0000E9E786210C4B064AFF310648FFF74CFCE9
:102D100034020020240100D000ED00E06C8C001093
:102D2000A08C0010DC8A0010948C0010CD010010E3
:102D30001D2A022000BDFFFF90880010AAAA0000F3
:102D400010B5002404E080212000FFF76DFF01345E
:102D50001F2CF8D910BD9A4200D288547047704792
:102D600010B5002802D00B684968984710BD0100D3
:102D7000002007E083001B185B00501C08601078DF
:102D8000C01830380A681378303BDBB2092BF1D910
:102D90007047F0B5DE4657464E464546E0B583B02F
:102DA00093461F000C9B9A460D9C0E9B99460F9BC9
:102DB0009B0703D0B8460F00060022E00192A3460D
:102DC00088464E46B9460700B44207D2551C4B46CA
:102DD00041462020B84701342A00F5E73D004F4620
:102DE0005C46019B9B46B1464646B84637002E00DE
:102DF00007E0013C551C5346185D43463900B04777
:102E00002A00002CF5D135003E0047460F9B9B075A
:102E100007D4100003B0F0BCBB46B246A946A0469A
:102E2000F0BDB0464E46B9462F005D46531BB34237
:102E3000EFD2541C4B4641462020B8472200F5E70C
:102E4000F0B5CE46474680B585B0944698460C9D71
:102E50000D9C0EAB1B789946109A119B129EB707DA
:102E60001CD4002B0CD0F7070AD54F46002F02D1F7
:102E70000C37374204D0013B02E030272F55013494
:102E8000944201D21F2CF8D9F70707D59C4205D2EE
:102E90001F2C03D830272F550134F5E7F70615D539
:102EA000770505D4002C03D0944224D09C4222D034
:102EB0000F9A102A2BD00F9A102A30D00F9A022A7C
:102EC00035D01F2C02D830222A5501341F2C05D8AA
:102ED0004A46002A31D02D222A5501340396029306
:102EE0000194009543466246FFF753FF05B0C0BC0E
:102EF000B946B046F0BD621E012C06D00F9F102FC0
:102F000001D01400D4E7023CD2E71400D0E7B206A7
:102F1000D1D41F2CCFD878222A550134D1E7B2065C
:102F2000CCD51F2CCAD858222A550134C9E71F2CEA
:102F3000C7D860322A550134C3E7720703D52B2264
:102F40002A550134CAE73207C8D520222A55013450
:102F5000C4E7F0B5DE4657464E464546E0B593B069
:102F600081468A46089209931CAB10CB1B789B467E
:102F70001E9D219B9846002C03D1102342469A4364
:102F800090468023DB0046461E4042461A4212D03D
:102F9000002C22D000260EE03033D9B2771C0AABC9
:102FA00099552900200000F0EDFFAC4216D31F2FE9
:102FB00014D83E0004002900200000F0E3FFCBB24B
:102FC000092BE9D94246920605D54121C918C9B253
:102FD0000A39C9B2E2E76121F8E7270043460693C0
:102FE000209B05931F9B049303955B4602930197D7
:102FF0000AAB0093099B089A51464846FFF720FF09
:1030000013B0F0BCBB46B246A946A046F0BDF0B531
:10301000DE4657464E464546E0B595B008900991C4
:103020000A920B931E9E1F9C20AB1B789B46229BF3
:103030009946239D269B9A463300234303D11033A0
:1030400052469A4392468023DB0057461F40524621
:103050001A4219D0330023432DD0002714E0303317
:10306000DAB27B1C98460CABDA554A462B0030008E
:10307000210000F0CDFFA5421FD819D043461F2BD9
:103080001BD8474606000C004A462B0030002100A2
:1030900000F0BEFFD3B2092BE1D95246920605D506
:1030A0004122D218D2B20A3AD2B2DAE76122F8E764
:1030B000B145E3D901E00023984653460693259B8A
:1030C0000593249B04934B4603935B46029343462C
:1030D00001930CAB00930B9B0A9A09990898FFF790
:1030E000AFFE15B0F0BCBB46B246A946A046F0BD47
:1030F000F0B5DE4657464E464546E0B591B08346AC
:103100008A460C9298461A9C08941B9D09952200A9
:103110002B002000290001F0F2F9002800D0E5E0A2
:1031200001225242D74B2000290001F0E3F9002888
:1031300000D0DBE001225242D34B2000290001F0F5
:10314000C3F9002800D0D1E000220023089D280008
:10315000099E310001F0B8F9002800D0DDE00898A0
:103160000999069007918023DB001E9A1A400D9260
:103170001E9A1A4201D106231C930698079904004F
:103180000D000A000600024300D1D1E0080D400501
:10319000400DBE4CA44660440A03120BBC4B1343C3
:1031A0001F0001F0BFF9BB4ABB4B01F04BF9BB4A12
:1031B000BB4B01F035F904000D000022B94B300083
:1031C000390001F024F9B84AB84B01F03BF902008C
:1031D0000B002000290001F023F901F0BBF9814622
:1031E00001F0A0F904000D00B14AB24B01F02AF938
:1031F0000022B14B01F014F901F0ACF90600AF4A1E
:10320000AF4B2000290001F01DF904000D00300033
:1032100001F088F9AB4AAC4B01F014F902000B0045
:103220002000290001F0F3F804000D0002000B005B
:1032300001F008F90A900B91A44BF31800261F0522
:1032400022002B002000290001F0EAF80E900F91D7
:1032500022002B0000208021C90501F0D8F80400CD
:103260000D0000229A4B0A980B9901F0E2F8002217
:10327000984B01F0D5F802000B000A980B9901F069
:10328000D8F80022944B01F0CBF802000B000A980A
:103290000B9901F0CEF802000B002000290001F08C
:1032A000BFF802000B000E980F9901F0C2F800223F
:1032B000774B01F0B5F832003B0001F0C3F806008F
:1032C0000F0004000D00069A079B01F013F9002877
:1032D00030D001235B429C46E14400227D4B30000C
:1032E000390001F0A6F804000D0023E01E9B0493B2
:1032F0001D9B03931C9B0293089A099B00920193C8
:1033000043460C9A5146584600F0FCF811B0F0BC08
:10331000BB46B246A946A046F0BD00230024069352
:103320000794069580231B069C46664407961AE779
:10333000002399464B466333C62B1ED804261E9B9A
:103340001B0526D52B0023430FD0644A644B0698F7
:10335000079901F0C7F8002879D00022614B069840
:10336000079901F0B1F8002871D01C9B4B4506DD90
:103370004A46981A431E1C9303E00526DFE7002304
:103380001C938023DB001E9A1A431E920026002302
:1033900099461D9B9E4264D29F1B02231E9A1A408F
:1033A0000A921E9A134202D0002E00D000274B46EC
:1033B000002B07D022002B000698079901F039F85E
:1033C00006900791002200230898099901F07CF8E3
:1033D000002848D1444B1E9A1340049303971C9B2A
:1033E0000293069B079C0093019443460C9A514616
:1033F000584600F087F8002E00D187E71E9B9B06F9
:103400003DD54525441C4346020051462800D84777
:103410004B46DA179B18534005220592013E04964D
:10342000002203920A3202924A46D00F0190009382
:103430004346220051465846FFF78BFD0A9B002B5E
:1034400000D163E702005F460C9E1D9D54E01C9B6B
:10345000002B9ED00D9B002B9BD01C9B013B1C93F3
:1034600097E7002799E7069C079D22002900802006
:103470000006844661440B0006920793AAE765257F
:10348000C0E7C046FFFFEF7FFFFFEFFF01FCFFFF3C
:103490000000F03FFB799F501344D33FB3C8608BCB
:1034A000288AC63F0000F83F61436F63A787D23F79
:1034B00071A379094F930A400000E03F1655B5BB50
:1034C000B16B0240EF39FAFE422EE63FFF030000E7
:1034D00000002C4000002440000018402D431CEB4D
:1034E000E2361A3F80842E41FFF7FFFF541C43460B
:1034F00051462020B8472200931BAB42F6D3100060
:1035000004E7C046F0B5DE4657464E464546E0B5B0
:1035100095B00690079193469946209F1E9A1F9B4F
:103520001000190000F0EBFF002831D101225242B7
:10353000BF4B1E981F9900F0C7FF002837D101220A
:103540005242BC4B1E981F9900F0D4FF00283DD179
:103550000022B94B1E981F9900F0CCFF002850D1D3
:103560000022B64B1E981F9900F0AEFF002848D1EC
:10357000002200231E981F9900F0A6FF002850D1BA
:1035800000239846229B5B0500D4B6E0002458E057
:10359000229B0393219B029303230193A84B009347
:1035A0004B465A4607990698FFF7F3FB0EE1229B1C
:1035B0000393219B029304230193A24B00934B4658
:1035C0005A4607990698FFF7E4FBFFE00423229A86
:1035D0001A4022990B4210D09B4B002A0FD0042294
:1035E0002299039121990291019200934B465A46E8
:1035F00007990698FFF7CDFBE8E0944BEDE703222F
:10360000EEE7229B0493219B039302971E9B1F9C32
:10361000009301944B465A4607990698FFF768FDB8
:10362000D4E01E9A1F9B0020002100F0F0FE1E90A7
:103630001F9101239846A5E70CAB30221A55013F94
:1036400001341F2C01D8092FF6D81E981F9900F0BD
:1036500081FF050000F066FF02000B001E981F9915
:1036600000F0D5FEFA007A4B9B181A685B680A9244
:103670000B9300F0E7FE0890099100F08FFF060021
:1036800000F04CFF02000B000898099900F0BFFE03
:103690000890099100226F4B00F02CFF00282ED0DB
:1036A0000136300000F03AFF02000B000A980B9937
:1036B00000F010FF002801D001350026002F2CD18A
:1036C000280000F02FFF02000B001E981F9900F049
:1036D0009EFE06000F0000225E4B00F0F5FE002863
:1036E00046D100225B4B3000390000F003FF002878
:1036F0003ED1EB073CD501353AE0062746E70022EC
:10370000544B0898099900F0DFFE0028D6D1002E0E
:1037100001D0F307D2D50136D0E7AA461F2C11D825
:10372000013F0A21300000F02DFC651C30310CAB4C
:1037300019550A21300000F025FC092E0ED906008B
:103740002C00EBE755461F2C0CD87B1E002F09D010
:103750000CAA302111551F000134F4E72B00554607
:103760001C00F0E71F2C03D80CAB2E221A55013495
:103770001F2C10D80A21280000F0D8FB661C30311D
:103780000CAB19550A21280000F0D0FB051E01D012
:103790003400EDE734000323229A1340012B1CD0A0
:1037A0001F2C06D84346002B32D00CAB2D221A55C5
:1037B0000134229B0393219B029301940CAB009351
:1037C0004B465A4607990698FFF7E3FA15B0F0BC46
:1037D000BB46B246A946A046F0BD219B002B13D0A4
:1037E0004346002B02D10C3313420FD0219B013BE7
:1037F0002193190003E00CAB30221A5501348C429E
:10380000CED21F2CF7D9CBE72199F8E72199F6E71B
:10381000229B5B0704D50CAB2B221A550134C8E759
:10382000229B1B07C5D50CAB20221A550134C0E7DB
:10383000FFFFEFFFFFFFEF7F65CDCD4165CDCDC130
:103840002C8D0010308D0010248D0010208D001064
:10385000188F00100000E03FF0B5DE4657464E4698
:103860004546E0B593B082468B46904611930029B9
:1038700000D1EBE200275546119B1878002800D1B3
:10388000E7E2252809D07C1C43463A005946A84760
:10389000119B013311932700EEE7013311930024AC
:1038A000119A11780B00203BD8B2102803D883005E
:1038B000D048C3589F460B00303BDBB2092B2CD9B4
:1038C0002A292FD000230A93119B1A782E2A39D047
:1038D00000239A46119A1378683BD9B2122976D8F8
:1038E0008B00C549CB589F4601231C4301321192DE
:1038F000D6E702231C4301321192D1E704231C4373
:1039000001321192CCE708231C4301321192C7E720
:1039100010231C4301321192C2E711A8FFF727FAC6
:103920000A90D1E71C9B1A1D1C921868002804DB22
:103930000A90119B01331193C6E702231C434342B3
:103940000A93F6E78022D20014435A1C11925A7847
:103950001300303BDBB2092B04D92A2A07D00023FD
:103960009A46B7E711A8FFF702FA8246B2E71C9B16
:103970001A1D1C921868002804DB8246119B013333
:103980001193A7E70020F8E780235B002343511C35
:10399000119152786C2A01D01C0018E0C0239B00C2
:1039A0001C430131119112E080232343511C1191DA
:1039B0005278682A01D01C0009E0C0231C43013161
:1039C000119104E080235B001C4301321192119B92
:1039D00018780300253BDAB2532A00D92CE2930071
:1039E000864AD3589F4680239B001C430132119284
:1039F000EDE780235B001C4301321192E7E7782852
:103A000009D0582838D06F2838D0622838D01023F1
:103A10009C430A2600E01026582833D0692803D09A
:103A2000642801D00C229443630501D501229443FC
:103A300069282AD0642828D0A30500D59FE0E30593
:103A400000D5B8E0630600D4CAE01C9A111D1C9191
:103A50001168FF220A4005940A9B0493534603937E
:103A6000029600230193009243463A0059462800EB
:103A7000FFF76FFA070027E01026CDE70826CBE70F
:103A80000226C9E720221443C8E7A30520D4E30592
:103A900050D4630666D51C9A111D1C911168FF2233
:103AA0000A40D317D118594005940A9B04935346F2
:103AB00003930296D20F0192009143463A00594671
:103AC0002800FFF746FA0700119B01331193D3E654
:103AD0001C9BDA1D07218A43110008311C911168D3
:103AE00053689C46DB170C930D930C9A0D9B1000AA
:103AF00048400E90624653400F930E980F990C9ACF
:103B00000D9B801A99410E900F9108940A9B079380
:103B1000534606930496002305936346DA0F0292F8
:103B20000090019143463A0059462800FFF76FFA8A
:103B30000700C9E71C9A111D1C911268D317D118F0
:103B4000594005940A9B0493534603930296D20F5F
:103B50000192009143463A0059462800FFF7F9F9CF
:103B60000700B1E7230605D51C9A111D1C910023FF
:103B7000D25E96E71C9A111D1C91126891E71C9B5E
:103B8000DA1D07218A43110008311C9108940A9B11
:103B900007935346069304960023059302931368F4
:103BA00054680093019443463A0059462800FFF7B1
:103BB0002EFA070088E71C9A111D1C9105940A9B98
:103BC00004935346039302960023019313680093D2
:103BD00043463A0059462800FFF7BBF9070073E750
:103BE00023060DD51C9A111D1C9112681204120C8B
:103BF00031E7C046388D00107C8D0010C88D001054
:103C00001C9A111D1C91126825E746281AD01C9B8E
:103C10000733072293431A0008321C9204940A9A2D
:103C20000392524602925C681B68009301944346DB
:103C30003A0059462800FFF765FC0700119B013345
:103C4000119319E620231C43E1E7672801D0472898
:103C500002D180231B011C43452801D0472801D1F4
:103C600020231C431C9B0733072293431A0008326E
:103C70001C9204940A9A0392524602925C681B6852
:103C80000093019443463A0059462800FFF730FA62
:103C90000700119B01331193EEE502231A00224025
:103CA000924623421FD001241C9B1A1D1C927A1C91
:103CB0009146187843463A005946A8475346002B88
:103CC00016D1119B013311934F46D5E5561C43463F
:103CD00059462020B847230032005C1C9D42F5D88D
:103CE0003D001700E0E701233A002F000A9DF4E7AA
:103CF0004A46A9460A9D06E0571C434659462020DD
:103D0000C84734003A00661CA542F5D84D46914696
:103D1000D7E71C9B1A1D1C921B6899465346002B23
:103D200000D1013B4E4601E0013613003278002AF3
:103D300002D05A1E002BF7D14B46F21A1092802364
:103D4000DB0026001E401C4203D0524501D95346D9
:103D5000109302231A0022400B92234205D03A000E
:103D600037004C46A946554620E03A00109B5F4676
:103D7000B3462E0006E0551C434639002020B047CC
:103D800023002A005C1C0A999942F4D835005E464B
:103D9000BB46109437004C46A946554606E01D0028
:103DA0000134561C43465946C84732002078002843
:103DB00004D0002FF4D06B1E002DF0D117004D461B
:103DC0000B9B002B03D1119B0133119354E50A9FE8
:103DD000109B06E0561C434659462020A847230066
:103DE00032005C1C9F42F5D81700ECE721231C43EE
:103DF0001C9B1A1D1C921B680093059408230493B6
:103E000053460393102302930023019343463A0041
:103E100059462800FFF79DF80700119B01331193C5
:103E20002AE57C1C43463A0059462520A847119BA9
:103E30000133119327001FE57C1C43463A00594685
:103E4000A847119B01331193270015E50A4B9A46A9
:103E500010E5AA46474502D343465A1E00E03A0001
:103E6000434659460020D047380013B0F0BCBB464B
:103E7000B246A946A046F0BD5F2D00100EB410B5A5
:103E800085B0010007AC08CC039401220094524293
:103E90000348FFF7E1FC05B010BC08BC03B01847AD
:103EA000572D001000B585B00290039101210093B9
:103EB00013004A4202A90248FFF7CEFC05B000BD3C
:103EC000612D001001480421014B18478002002099
:103ED000F53E001010B5010018231B88142210882D
:103EE000984710BD10B5010018231B8816221088B2
:103EF000984710BDF0B5C64600B507000E00002576
:103F00000123984600E00135B5420AD2AC003C19C5
:103F10002068FFF7DFFF20600028F4D100239846D7
:103F2000F1E7404680BCB846F0BD0000144A936FEC
:103F30009B0815D29066D166002905D0FFE7FFE700
:103F4000FFE7516F106F704704B580210906C21753
:103F50005140002800D0C84304F036F9002104BDC8
:103F6000936F5B08FDD3F0B5946ED56E576F166FE7
:103F7000FFF7E0FF9466D56657671667F0BD00004F
:103F8000000000D0134A936F9B0813D2106651664D
:103F9000002905D0FFE7FFE7FFE7516F106F70477B
:103FA00004B5002801D00020C04304F00DF9002121
:103FB00004BDC046936F5B08FDD3F0B5946ED56E1B
:103FC000576F166FFFF7E2FF9466D566576716675F
:103FD000F0BD0000000000D094464E4A926F920857
:103FE000624601D230E0C046F0B54A4EB56F6D086A
:103FF000FCD3346E756E776F366F00F025F89446FB
:10400000444A14665566576716676246F0BDC04657
:104010009446404A926F9208624601D258E0C046E8
:10402000F0B53C4EB56F6D08FCD3346E756E776F8E
:10403000366F00F04DF89446364A14665566576759
:1040400016676246F0BDC046002B24DB11D0002964
:104050003EDA00B5C943404200D1013100F038F8E2
:10406000C943404200D10131DB43524200D1013308
:1040700000BD002AEBD1002801D1002905D0002085
:10408000C90FC90701D1C043410800B504F094F835
:104090000022002300BD00B500290ADBDB435242A9
:1040A00000D1013300F014F8C943404200D101317E
:1040B00000BDC943404200D10131DB43524200D12F
:1040C000013300F005F8DB43524200D1013300BD5B
:1040D000002923D1002B18D1002A0CD0BC460D4F4B
:1040E00038667A6600210023FFE7FFE7FFE77A6F73
:1040F000386F67467047002801D00748010000B5B7
:1041000004F05AF80022002300BD02000B0000203A
:1041100000217047000000D0FFFFFFFF002B00D000
:10412000BDE0130C26D1002AE7D080B4104F3966C9
:104130007A66FFE7FFE730B4040C7B6F396F1B042E
:1041400023433B66FFE7FFE7FFE7C04684B27B6F90
:104150003D6F1B0423433B66FFE7FFE7C046002398
:104160002C042D0C7A6F386F00196941B0BC704770
:10417000000000D0F0B594460025140E01D11202C3
:104180000835140F01D112010435940F01D19200AA
:104190000235D40F01D152000135D40B0134254F23
:1041A0007C66254C3C660E0C93B2FFE7FFE7FFE709
:1041B0003C6F6643360C7703BE467343DF0B5B04EC
:1041C000C01AB941130C7343DB18C91ACE086643F1
:1041D000360CB64493B273431F0F1B01C01AB9418A
:1041E000130C73431F0B1B05C01AB941860D8F02B8
:1041F0003E436643360C092D24DB520A7243801A73
:104200007703460A6643360C16235B1BDE40DF400D
:10421000BF1964466643821B7046043506330100AD
:10422000D940A840C01900D30131A24206D20023D0
:10423000F0BD0000000000D0FFFFFFFF121B0130A7
:10424000F3D3F1E709277F1BFE406446A2B2724315
:10425000801A00D20139220C7243130C1204821A04
:1042600099410B007046043513370100F940A8400E
:10427000801900D30131002B02D1A2420AD2F0BD35
:10428000013000D30131121BFAD2013BF8D1A24216
:1042900000D2F0BD013000D30131121BF7E7F0B5B9
:1042A0001C0C00D080E00CB400251C0A04D11B02B9
:1042B000160E3343120208351C0B04D11B01160FD6
:1042C0003343120104359C0B04D19B00960F3343FA
:1042D00092000235DC0B02D192185B4101351C00C3
:1042E000971864410134464F7C66464C3C660E0C80
:1042F000FFE7FFE7FFE7C0463C6F6643360C7703F6
:10430000BE4697B27743C01B00D20139C01B00D212
:1043100001399FB27743C91BC91B170C77437E0431
:10432000FF0B801BB941CE086643360C0C2D33DBE6
:10433000B644120B1F053A431B0B97B27743C01BC1
:1043400000D201399FB27743C91B170C77433E0453
:104350003F0C801BB941860D8F023E4366432927DF
:104360007F1BFE400C3D7746AF40BF1930BCA2B268
:10437000ABB272437343801A9941220C7243130CFF
:104380001204801A994102000B000137001BA94159
:10439000F9D2781E0021F0BD0C277F1BFE40774626
:1043A0007F0BAF40FF19E0E700245D1C07D0144FDE
:1043B0007D663966FFE7FFE7FFE7FFE73C6F95B2F1
:1043C0009EB265436643401BB141150C1E0C65430C
:1043D000664336042F0C3E432D04401BB1419942E5
:1043E00004D202000B0020000021F0BD01D1904258
:1043F000F7D3801A994101349942F2D3F6E70000CD
:10440000000000D0FFFFFFFF48404140484018B483
:10441000114B5B68FC46019308BD04DFA746001002
:1044200018B40D4B1B68FC46019308BD00DFB14674
:10443000001018B4084BDB68FC46019308BD0CDF84
:104440006949001018B4044B9B68FC46019308BDF1
:1044500008DF0D4800100000F4270220FFB550408F
:104460004240504059404B40594000E0FFB5154F85
:104470004C00640D03D0BC4204D10C0314D80020BE
:10448000090D09055C00640D03D0BC4204D11C0376
:104490000AD800221B0D1B0501264B4009D44B40B6
:1044A00003D58B4200D18242FFBD9942FCD190429C
:1044B000FFBD0B43DB1803431343F5D0C943491831
:1044C000FFBD0000FF07000000B5FFF7CFFF8041F0
:1044D00000BDC04600B5FFF7C9FF01D9002000BDEF
:1044E000012000BD00B5FFF7B9FF01D9002000BDD4
:1044F000012000BD00B5FFF7B1FF804100BD0120E4
:1045000040054A00121804D85A00121801D8002099
:1045100070470120704700207047000000210028EC
:1045200005D17047C1174840401AFAD0C90713B5E2
:10453000064B1B6898470CBC441CA2401005120B8C
:104540000349091B09051943114310BDF82802202E
:104550001F04000010B54C00620D8023D218DB0050
:10456000D21A5B057E2A10DD9E3A13DACC170903B6
:10457000490819435242D140640001341532202ABF
:1045800005DAD0400843604310BD002010BD084646
:10459000604310BDC80FC018013810BD18B4044BDB
:1045A0005B6AFC46019308BD24DF954B00100000B8
:1045B000F427022070B513231C78012C0FD0012C96
:1045C0000FDC022C02DC1D4A1D4B9A6470BD990061
:1045D0001A481B4A885001331F2BF8D9EFE70023F4
:1045E000FAE71848FFF77EFC05001748FFF77AFC4A
:1045F000023803789B007F2B19DD802229001048A8
:1046000000F028FC022CDCD1104B1A88B5231B02C9
:104610009A4209D10E4B1A880E4B9A4204D10E4B86
:104620001A880E4B9A42CCD00020FDF7DBFF0C4BD2
:104630000C4A30210C48FDF7B7FFC0466D4600100C
:10464000F427022053440000534600005438000071
:10465000D8380000494600009C3800005946000048
:10466000688F001024900010C88F001007B56046B6
:10467000002800D100BE01880A0A0230DF2AFAD1E0
:10468000C9B2820804D3028840880004104300E0C5
:104690000068024A5050039007BD0000F427022032
:1046A0000FB403BC0CBCF0B50124E407634000E088
:1046B000F0B50C0DCF0F661E3605891B640503D3BC
:1046C000C943404200D30131640D03D0661CF60A91
:1046D00007D0E41B00207F00791C89078912803CE9
:1046E00024031D0DDF0F6E1E36059B1B6D0503D3C6
:1046F000DB43524200D301336D0D03D06E1CF60A2A
:1047000007D0ED1B00227F007B1C9B079B12803D86
:104710002D032F1B661B58D4A446202E46DA2037C3
:104720001400BC401D00BD40F24033412A438018B4
:104730005941CB0F05D0C943C043002264425041C8
:10474000514162464D0D28D10D0D07D100281FD0D3
:10475000241940414941013A0D0DF9D0640006D3B6
:10476000013000D30131002C01D140084000013A52
:104770000BD4941CE40A04D112051144DB0719443C
:10478000F0BDD907204B194300E0D9070020F0BD48
:104790000029DDD1002CDBD1F0BD0132C607400875
:1047A000CD0728434908002EE1D0D9E73C2E29DA6D
:1047B000203E40371400BC4000D00124F240144396
:1047C0001A00BB401C43D317ACE7AC46202F08DAD5
:1047D00020360400B4400D00B540F840394128436C
:1047E000A5E73C2F0CDA203F40360400B44000D04F
:1047F0000124F84004430800B1400C43C117EAE724
:1048000010001900002494E70000F07FF0B50C0DB3
:10481000661E3605891BE60A6405640D02D0651C18
:10482000ED0A04D0002001210905803C2403A446A0
:104830001C0D671E3F05DB1BE70A6405640D02D0F3
:10484000651CED0A04D0002201231B05803C2403D3
:104850007740644497B484B296B27443070C7E43A5
:10486000150C6F4380B26843361802D30120000450
:104870003F183004350C00197D41844688B29AB245
:1048800050430C0C62431F0C7C438EB27E43921942
:1048900002D301263604A4191604170C36186741F2
:1048A00001BC81B29AB25143040C62431B0C5C43BD
:1048B00080B25843121802D30120000424181004B7
:1048C000130C401863412D185E410020474106BC7F
:1048D00088B293B258430C0C6343120C544389B210
:1048E00051435B1802D301210904641819041A0CFE
:1048F000091862416D1856410020474118BCF90261
:10490000720D1143F0026A0D1043ED020A0D03D13E
:104910006D1940414941013B124E9B1B7600B34249
:104920000ED26D0007D30130002671416646354333
:1049300001D1400840001B05C918E4072144F0BD1F
:104940000BDA013306D1013004D101314F0D01D012
:104950004908F2E7E1070020F0BD013631050020EB
:10496000EBE70000FF030000F0B51C0D671E3F05DC
:10497000DB1BE70A6405640D02D0661CF60A04D04E
:10498000002201231B05803C2403D0252D06002690
:10499000F6432E661E096E66CE0FF619B446490020
:1049A0004F0D02D07E1CF60A03D000200021403FAC
:1049B0003F033E1BB600B444013F7F05C91B4908B5
:1049C0002E6F013676089C02950D25437543ED1335
:1049D0007543AD1301356D10F603761B0CB4CC0294
:1049E000450D2C43A2B2B3B25A43270C7B43350C7E
:1049F0006F43A4B26C431B1902D3012424043F1952
:104A00001C041D0CA4187D4124196D41009A91B21B
:104A1000ACB26143170C7C432B0C5F4392B25A43F8
:104A2000A41802D301221204BF182204230C521826
:104A30007B41019C6C431B19520ED9010A4344016E
:104A4000A01A81B2B2B2514303145A43360C7343D5
:104A500087B27743D617D21900277E4136049B19B7
:104A60001704160C7F185E417316ED18F30100262B
:104A700080337541A90F06D16400690AE8055B0A15
:104A8000184309D22FE00422944480337541A90AC7
:104A9000A8059B0A184326D3404149412404009AA3
:104AA000019B0D005543641B4343E41A95B286B243
:104AB0007543170C7E43030C5F4392B25A43B618FA
:104AC00002D301221204BF183204330C52197B4165
:104AD00052429C41002C02D4002201305141400836
:104AE000CA071043490802B06246D7079210084B24
:104AF000D218084B9A4203D212058918C919F0BD81
:104B00000020002A01DC3900F0BD01331905F5E76A
:104B1000FD030000FE070000624618CA9446002903
:104B20001ADAC01861415B463B415C46B4405246CC
:104B3000FA40224344464D4662416B4190469946B5
:104B40002B46B3403D41FC401C4352465B46A241CC
:104B5000AB4192469B467047C01AA1414B463B4130
:104B60004C46B4404246FA40224354465D466241B8
:104B70006B4192469B462B46B3403D41FC401C4353
:104B800042464B46A241AB419046994670470020B1
:104B900000217047002200B5203200F004F8080020
:104BA00000BD000000220B15F1D410B5944600F0B2
:104BB0002FF81414013400DA0021CB17134C2047CE
:104BC0006244343A0CD40C2A07DA04009140904035
:104BD00052422032D440214310BDD843D94310BDA6
:104BE000203207D40C469440524220321141D0402A
:104BF000204310BD0800C917203203D4524220328E
:104C0000104110BD1800190010BD0000C14B00106C
:104C10000A0DCC0F531E1B05C91A520503D3C943F5
:104C2000404200D30131520D03D0531CDB0A07D0A0
:104C3000121B00206400611C89078912803A12034C
:104C4000014BD21A70470000FF0300005143434359
:104C5000C9188C46110C83B24B4310B4040C614349
:104C600092B280B2504362431C041B0C001910BC6A
:104C700059411304120CC01851416144704700009F
:104C800048404140484000239C46094B5B68184718
:104C900000239C46064B1B68184700239C46044B88
:104CA000DB68184700239C46014B9B6818470000AF
:104CB000FC280220C10FC90700D54042002817D0A8
:104CC000F44603B40B4B1B68984706BC81409E38E2
:104CD0004042803107D20B0607D04900490AC0057F
:104CE0001043084360470130F8E7490A8902F5E7B5
:104CF00070470000F828022000239C46014B5B6AA5
:104D000018470000FC28022070B513231D782A489C
:104D1000FFF7E8F80400012D11D0012D09DDA31ED5
:104D20001B789B007F2B40DD80222100234800F070
:104D300091F82348FFF7CEF8224B186070BD54223B
:104D400001001E4800F086F81F4B1A881F4B9A423C
:104D50001CD1A7239B011A881D4B9A4216D11D4BCB
:104D60001A881D4B9A4211D11C4B1A8894239B011F
:104D70009A420BD11A4B1A881A4B9A4206D11A4BF7
:104D80001A681A4B9A4201D1152307E01848FDF71B
:104D900029FC99001748094A885001331F2BF8D97C
:104DA000144A064B1A62DA61B7E7134B134A4221E1
:104DB0001348FDF7F9FBC04653460000FC280220CB
:104DC0004C330000F8280220EE290000C40F000038
:104DD000C20D0000962B0000C0B50000182B00008B
:104DE000CC2A000010B50000FC2C000051ED8764B7
:104DF00010890010054E001038900010C49000106B
:104E00006C90001007B56046002800D100BE0188F4
:104E10000A0A0230DF2AFAD1C9B2820804D3028812
:104E200040880004104300E00068024A505003909C
:104E300007BD0000FC28022001480421014B18474F
:104E400090020020F53E0010014B1B68184700003F
:104E500090020020014B5B68184700009002002080
:104E6000F8B507000D001600437C002B02D000248B
:104E700000200CE003681100280098472DE03B7CDF
:104E800010E0022115483B689847601C0134B44289
:104E900014DA002CF3DD2B19013B1B780D3B5A4231
:104EA0005341DBB22A5D0A2AF0D1002BEED1A04299
:104EB000E7DA211A28183B689847E2E7B04203DA9C
:104EC000311A28183B689847002E06DDAD19013DC0
:104ED0002B780D3B5A4253413B74F8BD389100107A
:104EE00070B505000368002B16D00C4B1C6805E05C
:104EF000290004C92000FFF7B3FFE468002C09D0A3
:104F00002368002BF9D0064B1B68002BF0D0A3427E
:104F1000F3D1EDE700232B6070BDC046D4270220FB
:104F2000DC27022070B505000C000B68802B05D033
:104F300021684B1C23606418257170BD0800FFF7C1
:104F4000CFFFF5E710B582B0D0231B061C6801A97E
:104F5000064803F041F9002806D1019BA34203D083
:104F6000024803F049F9012002B010BDF00600200C
:104F700010B5024803F018F910BDC046F006002035
:104F8000F0B5C64600B582B006000D001700FFF769
:104F9000D9FF80466B1C02D0184B1C6805E030001E
:104FA00002F0D2FF0500F7E7E468002C18D0236870
:104FB000002BF9D0124B1B68002B01D0A342F3D178
:104FC0002A0031002000FFF74BFF002FECD06B468A
:104FD000D91D0A230B7001222000FFF741FFE3E7F0
:104FE0004346002B06D16B1E9D41E8B202B080BC47
:104FF000B846F0BDFFF7BCFFF5E7C046D427022056
:10500000DC2702200C4B1A68130001E01A00DB6851
:10501000002B08D08342F9D1002903D1DB68D3608B
:105020000023C36070470029FCD0002A01D0D06063
:10503000F8E7014B1860F5E7D427022010B5064BBE
:105040001C6801E09847E468002C03D06368002BDB
:10505000F8D1F8E710BDC046D427022070B505008E
:1050600002F072FF0400012201002800FFF788FF10
:10507000FFF7E4FF200070BD70B5A2B004000E0081
:10508000FFF760FF05008422002101A8FFF7DCFE86
:105090003300220001A90848FEF704FF040001A81C
:1050A000FFF71EFFFFF7CAFF002D02D1200022B03C
:1050B00070BDFFF75DFFF9E7254F00100FB400B595
:1050C00083B004A901C90191FFF7D6FF03B008BC62
:1050D00004B0184710B500F085F810BDF0B583B0E6
:1050E00005000E0000240FE06B46D91D0D230B7048
:1050F0000020002816D193699B06FCD40B7813601E
:1051000001300131F5E70134B44219DA0D4B1A6868
:105110002F5D0D4BD31859424B415B000B495B5E31
:10512000BB42E1D06B46D91D0F7000200028EAD1A8
:1051300093699B06FCD40B78136001300131F5E7CD
:1051400003B0F0BD142A02200080FCBF102A022008
:10515000F0B583B006000F00002004E06B46073373
:105160001B7823702800B84215DA0E4B1A68936931
:105170001024210019401C420DD1451C34186B46E7
:10518000D81D0029EAD19369DB06FCD413680370AB
:1051900001310130F5E7002801D003B0F0BD03383C
:1051A000FBE7C046142A022070B515001C000B4B0B
:1051B0001860FCF75FF9002D06DA002C09DA0121EE
:1051C0000748FFF71FFF70BD02212800FCF730F8E9
:1051D000F3E702212000FCF72BF8F0E7142A022065
:1051E000A002002010B5064B1B78064B1B78E1216E
:1051F0000123002249020448FFF7D6FF10BDC04634
:10520000FC9200100093001000400340F0B5DE4611
:1052100057464E464546E0B583B0050010009A4615
:105220000CAB1B7801930D9E0E9B98462B680022B9
:10523000DA662B6859602B680132DA66D3460023A0
:105240009946002426E02A79002A2BD0012229E061
:105250000199002901D0002128E0012126E04046E3
:10526000B04703000443E4B2002C0DD12A68126F4A
:10527000520709D42A6880215758546D621E944100
:10528000E4B2002EEBD1EFE7002C18D101229446B6
:10529000E1440098D94512DA5246511E4A46002A86
:1052A000D1D0002292024945D2D0002149020A43BE
:1052B000411C00910078296802430A61DAE7002C5A
:1052C00007D0002B13D1002F15D0FB0717D43B07B5
:1052D00009D5019B2B71484603B0F0BCBB46B246D2
:1052E000A946A046F0BD02235B429946F1E701239F
:1052F0005B429946EDE702235B429946E9E70223C8
:105300005B429946E5E7F0B5DE4657464E464546D0
:10531000E0B583B0050091469A460CAB1B7801932B
:105320000D9E0E9F03680022DA66036859600368C9
:105330000132DA66D3460023984600242AE0297910
:10534000002933D0012131E00198002801D000204C
:1053500030E001202EE03800B04703000443E4B2FF
:10536000002C0DD12A68926F002A09D12A68802169
:105370005158546D621E9441E4B2002EEBD1EFE718
:10538000002C1ED12A68126949460A7001229446EF
:10539000E044E144D84514DA5246541E2A68516F5D
:1053A0002029FBD041460029C9D00021890244456B
:1053B000CAD0002040020843802149000143116106
:1053C000D4E7002C04D0002B0CD001235B4298467C
:1053D000019B2B71404603B0F0BCBB46B246A946C8
:1053E000A046F0BD02235B429846F1E7F8B5040001
:1053F0000D000520FDF714FA060068088019290041
:10540000FEF7C0FD0500400040190521FEF7BAFD7A
:105410002B1A22680021D1662768396804224A4085
:1054200006211140802252013A4311602268D06166
:10543000226813620F2B0BD91B09A02221688B5005
:1054400023689F3ADA6629003000FEF79BFDF8BD1D
:105450000123F2E710B5104B98421BD010220F4BDE
:105460001A600F4B1A600F4B9B6814009C43231E5D
:10547000F9D104710268D466026865241460026878
:10548000D36302689363883303220468E250FFF712
:10549000ADFF10BD0822E2E7B402002000E00040AA
:1054A00000F0004000C0004030B585B008AC257861
:1054B0000024029401940095FFF7A8FE05B030BDCA
:1054C000F0B5CE46474680B589B08146884616007D
:1054D0001F0010AB1C7804AD129A139B2800FCF738
:1054E00091FC0295019000943B00320041464846F1
:1054F000FFF709FF09B0C0BCB946B046F0BD0000D7
:1055000000B583B00100044B00930B230022034835
:10551000FBF715FF03B000BD7C910010182A022094
:105520000123084A1360084A1360084B9A68012354
:105530009343FAD1064B01221A60054B1B68DB0529
:10554000FBD5704700E0004000F0004000C0004084
:1055500000C00440F0B5D646474680B583B08246C9
:1055600088460620FDF75CF90700022400E02C00C5
:10557000FE2C1CD801970026A51C280242460023B9
:105580000021FFF763FB002903D1B142EFD1B842FC
:10559000EDD980256D00012D0CD96E1E21007143BF
:1055A0003800FEF7EFFC404504D83500F3E78025CE
:1055B0006D00F0E753461C616B1E1B0252461268D9
:1055C0005340FF22120213408020400152461043F4
:1055D0000360290061433800FEF7D4FC03B0C0BC6F
:1055E000BA46B046F0BD000070B50400154B9842B5
:1055F00025D080229202144B1A60144B1A60144B6F
:105600009B6810009843FAD12000FFF7A3FF23689E
:1056100007267340CF210B408022520122431360A2
:105620002500243580208001054303232B6008CC0E
:1056300073401940116004430223236070BD80222F
:105640005202D8E700C0034000E0004000F00040F4
:1056500000C000400300406A002803D01B6B1B6899
:105660000420C01A704710B5040002F079FAA26B4A
:10567000E36B9A4204D0002402F07EFA200010BDB1
:105680000124F9E710B5040002F06AFAA36B002BBD
:1056900004D1012402F070FA200010BD0024F9E7C3
:1056A00070B504001500866B026C002A0CD10368EB
:1056B000002B03D000200136A66370BD806801F086
:1056C000C3FC0023A360F6E7002D0ED14068FFF76E
:1056D000C1FB6368226C944663446360A268934292
:1056E0001BD3236863602800E5E7C068FFF7B2FBBF
:1056F000236C5A42E168CB1AE36021688B4203D2E3
:10570000A3689C466244E260022D01D00020D2E7EB
:10571000002E04D0013E0020CDE72800CBE700207A
:10572000C9E770B582B00190846CA36BE26B9342C1
:1057300003D30025280002B070BD4523E65C76B295
:10574000002201A92000FFF7ABFF0500731C04D065
:10575000013676B24523E654ECE7636A002BE9D0C4
:105760002000243001F0D8FA0028E3D00125E1E739
:1057700010B5030008001A6C002A0AD0D9688918ED
:10578000D9609C68A14201D31968D960D968FFF734
:1057900061FB10BD70B5050002F0E2F94523EC5C39
:1057A00064B20AE06B6A002B17D02800243001F0A5
:1057B000B3FA00280ED1013C64B2002C0DDDAB6CB5
:1057C000002BEFD02800FFF7ACFF0028F3D001F04A
:1057D000A7FBF0E701F0A4FBEDE74523FF22EA5425
:1057E00002F0CAF902F0BCF94423EC5C64B201E0B7
:1057F000013C64B2002C0BDD2B69002B08D0280083
:10580000103001F089FA0028F2D001F089FBEFE7AF
:105810004423FF22EA5402F0AFF970BDF8B504004A
:105820000D00002852D0C36B002B51D0016C002614
:105830000F0C1A0C002F13D190B2002803D1002EA8
:1058400014D0002045E0081C89B29BB24B4380B2C3
:1058500092B242431B0CD3181B0CF0D00126EEE78A
:1058600092B2002AFAD13A1C181CEDE702F078F93E
:105870002268E36B206C010059435118A16000219C
:10588000A1636260013B4343D318E360FF234422DA
:10589000A3540132A354002D0FD12369002B03D14F
:1058A00002F06AF9012014E02000103001F034FA0F
:1058B0000028F5D002F048F9F2E72000103002F09D
:1058C000F1FA2000243002F0EDFAE9E7002000E0D0
:1058D0000020F8BD10B5029C002909D12460E063C6
:1058E000216401212000FFF799FF0023A36410BD6C
:1058F0002260F4E7F0B583B004000D001600002824
:105900002FD000200A0C230C002A25D19AB2002A9D
:1059100014D1002829D12800604303004D3326D834
:105920004C3002F0F3F9071E1CD002004C320090FC
:10593000330029002000FFF7CDFF13E01A1C2F1CB5
:10594000ABB2A1B25943BFB293B27B43090C5B180F
:105950001B0CDED00120DCE79BB2002BFAD1271C08
:10596000EEE70027380003B0F0BD0027FAE7002774
:10597000F8E710B50C00002809D0884209D30222AC
:105980000021FFF7B7FF002804D0846302E0002065
:1059900000E0002010BDF0B585B004000D000192BC
:1059A0001E00002740E0A76B320029002000FFF70F
:1059B00077FEA36C002B10D0022E01D1002F04D152
:1059C0002000FFF7AEFE002804D102F0D5F8012038
:1059D00005B0F0BD02F0B8F8F7E7636A002B04D118
:1059E0000028F2D002F0B0F8EFE72000243001F0F8
:1059F00093F90028E9D002F0A7F8E6E702F0BCF836
:105A00000020E5E702A801F057FA013719E0442326
:105A10000022E25420E045230022E25421E020004D
:105A2000FFF7B8FE00F0C0FF02F09AF8A36BE26B3C
:105A30009342B8D3022EB6D0019B002BDED0002FAC
:105A4000E0D002F099F800F0F7FE02F089F8442364
:105A5000E15C49B24B1CDAD04523E05C40B2431C08
:105A6000D9D002F089F801A902A801F02DFA002886
:105A700013D12000FFF7F7FD0028D0D02000103010
:105A8000019901F0FBF82000FFF784FE00F08CFF85
:105A90000028C9D102F058F8C6E72000FFF77AFEC7
:105AA00000F082FF002093E710B5002807D0002304
:105AB00083600360C36000220021FFF76CFF10BD0C
:105AC00010B5020000210120FFF714FF0400FFF7CA
:105AD000EBFF200010BD70B50400856801F044FAAA
